:020000040C00EE
:1000000000C8FF1F010200089102000891020008C9
:10001000910200089102000891020008000000000F
:100020000000000000000000000000009102000835
:1000300091020008000000009102000891020008EF
:100040009102000891020008910200089102000844
:100050009102000891020008910200089102000834
:1000600091020008000000000000000000000000F5
:1000700091020008000000009102000891020008AF
:100080009102000891020008910200089102000804
:1000900091020008910200089102000891020008F4
:1000A000910200089102000800000000000000001A
:1000B0000000000000000000000000000000000040
:1000C0000000000000000000000000000000000030
:1000D0000000000000000000000000000000000020
:1000E00000000000000000009102000891020008DA
:1000F0009102000891020008910200089102000894
:10010000910200086119000891020008910200089C
:1001100000000000000000000000000000000000DF
:1001200000000000000000000000000000000000CF
:100130009102000891020008910200089102000853
:1001400000000000000000000000000000000000AF
:100150009102000891020008000000000000000069
:100160009102000891020008910200089102000823
:100170009102000891020008910200089102000813
:100180009102000891020008910200089102000803
:1001900091020008910200089102000891020008F3
:1001A00091020008910200089102000891020008E3
:1001B00091020008910200089102000891020008D3
:1001C000000000000000000000000000000000002F
:1001D0000000000000000000910200080000000084
:1001E000910200089102000800000000910200083E
:1001F00000000000000000000000000000000000FF
:10020000DFF86CD01B4880471B4C1C4DAC4209DA10
:1002100021686268A368043BA2BFC858D050FAE7BF
:100220000C34F3E7164B174CA34208DA19685A68E6
:100230000020043AA4BF8850FBE70833F4E71248D3
:100240008047124880470000DC1F000C00C8FF1FD9
:1002500038000000DC1F000C00C8FF1F0000000079
:1002600038C8FF1F10000000000000200000000040
:1002700000C8FF1F9502000848020008600200083D
:100280006002000870020008491F000819190008E0
:10029000FEE7000098B500AF084A4FF0005314463F
:1002A0000FCB84E80F00064B064A07CA83E8070015
:1002B00001F01EFA01F086FA98BD00BFC45F00206D
:1002C000D45F00208400002080B584B000AF2F4BA5
:1002D000DB6803F48033002B3ED02D4BDB6803F04A
:1002E0000103002B02D02B4BFB6002E001F060FA0F
:1002F000F860274B1B6803F00403002B20D0244B2D
:100300009B6803F070631B0E0133BB60204B9B683E
:1003100003F4FE431B0A01337B601D4B9B6803F40F
:10032000FE031B0C01333B60BB683A6802FB03F31E
:10033000FA68B2FBF3F37A6802FB03F3FB600DE0AB
:10034000134B9B6803F07F0301333B60FA683B6803
:10035000B2FBF3F3FB6001E00E4BFB600B4BDB6881
:10036000DBB20133FA68B2FBF3F3FB60074B1B69A6
:1003700003F001030133FA68B2FBF3F3FB60064AB2
:10038000FB6813601037BD4680BD00BF00460050BB
:100390001047005000366E01C05F002080B485B069
:1003A00000AFF8600B467A60FB72FB7A9B08DBB209
:1003B0001846FB7A9B08DBB21A46FB68043253F8F6
:1003C0002220FB7A03F00303DB001946F8238B405D
:1003D000DB4302EA0301FB68021D43F82210FB68BD
:1003E0005A6FFB7A5B00194603238B40DB431A40AC
:1003F000FB685A67FB68384A93420AD1FB681A6E59
:10040000FB7A012101FA03F3DB431A40FB681A6609
:1004100042E07B681B78DBB25BB2002B3CDA7B6886
:100420005A68FB7A9A40FB685A60FB7ADB08DBB2B9
:100430001846FB7ADB08DBB21A46FB68103253F829
:100440002220FB7A03F007039B00194607238B4009
:10045000DB4302EA0301FB6800F1100243F82210BB
:10046000FB7ADB08DBB21846FB7ADB08DBB21A4604
:10047000FB68103253F822207B681B7A1946FB7AFE
:1004800003F007039B0001FA03F342EA0301FB6850
:1004900000F1100243F82210FB7A9B08DBB21846E9
:1004A000FB7A9B08DBB21A46FB68043253F8222021
:1004B0007B681B781946FB7A03F00303DB0001FA23
:1004C00003F342EA0301FB68021D43F822101437CC
:1004D000BD465DF8047B7047008E024880B400AFD3
:1004E000034BD3F8C4301846BD465DF8047B704713
:1004F0000040005080B584B000AF7860FFF7E4FEA4
:100500000B4B1B680B4AA2FB03239A0C7B6802FB74
:1005100003F37B600023FB6003E000BFFB68013353
:10052000FB60FA687B689A42F7D31037BD4680BDFE
:10053000C05F002083DE1B4380B400AF034B5B68C9
:100540001846BD465DF8047B704700BF74400050FC
:1005500080B483B000AF7860034A7B68D3600C3707
:10056000BD465DF8047B704774400050B0B584B060
:1005700002AF7860002000F091F800F05BFA7B6831
:10058000DB79002B0AD000F093FA00BF00F07EFA6E
:10059000034683F00103DBB2002BF7D17B685B7A63
:1005A000184600F0F5F800BFFFF798FF0346002B50
:1005B000FAD17B681B7A184600F016FA7B681B7C20
:1005C000184600F003F97B685B7C184600F026F9BA
:1005D0007B689B7C184600F00DF97B68DB7C184635
:1005E00000F030F97B689B79002B0AD000F098FA74
:1005F00000BF00F0BDFA034683F00103DBB2002B1D
:10060000F7D17B68DB78002B09D17B689B7983F07D
:100610000103DBB2002B17D000F0CEFA14E000F09B
:10062000BBFA7B6899887B68DA787B685B781D46C3
:100630007B681B781C467B689B78009308461146B4
:100640002A46234600F0C8FA7B68DB68B3F5803F92
:1006500003D14FF4803000F021F8FFF735FE083762
:10066000BD46B0BD80B485B000AF78607B681B0F1D
:10067000FB607B6823F07043BB60FA6813465B0045
:1006800013449B001A46044B1344BA681A6014378B
:10069000BD465DF8047B70471444005080B483B0BD
:1006A00000AF78600649064BDB6823F480327B6834
:1006B0001343CB600C37BD465DF8047B704700BF29
:1006C0000046005080B483B000AF78600649064B06
:1006D0009B6923F480327B6813438B610C37BD46E2
:1006E0005DF8047B704700BF0046005080B483B0C3
:1006F00000AF78600649064B5B6A23F440327B68A2
:1007000013434B620C37BD465DF8047B704700BF56
:100710000046005080B483B000AF0346FB80FB88E6
:10072000002B08D10A4A0A4BDB6823F4807323F0BC
:100730000103D36007E0064A054BDB6843F480738E
:1007400043F00103D3600C37BD465DF8047B70476E
:100750001047005080B483B000AF0346FB7100BF68
:10076000094BD3F8C43003F00803002BF8D1074934
:10077000064BDB6823F04002FB791343CB600C3758
:10078000BD465DF8047B70470040005000430050B8
:1007900080B483B000AF0346FB7100BF094BD3F8B0
:1007A000C43003F00803002BF8D10749064BDB687F
:1007B00023F08002FB791343CB600C37BD465DF814
:1007C000047B7047004000500043005080B483B069
:1007D00000AF78600649064BDB6823F0FF027B68B8
:1007E000013B1343CB600C37BD465DF8047B70477B
:1007F0000046005080B483B000AF78600649064BD5
:100800001B6A23F001027B68013B13430B620C3728
:10081000BD465DF8047B70470046005080B483B04D
:1008200000AF78600649064B1B6923F001027B6824
:10083000013B13430B610C37BD465DF8047B7047E9
:100840000046005080B483B000AF78600649064B84
:100850005B6923F001027B68013B13434B610C375A
:10086000BD465DF8047B70470046005080B483B0FD
:1008700000AF78600649064B9B6923F007027B684E
:10088000013B13438B610C37BD465DF8047B704719
:100890000046005080B483B000AF78600649064B34
:1008A0005B6A23F0FF027B68013B13434B620C370A
:1008B000BD465DF8047B70470046005080B483B0AD
:1008C00000AF0346FB71044AFB7953600C37BD4609
:1008D0005DF8047B704700BF0046005080B485B0CF
:1008E00000AF78607B681B0FFB607B6823F0704370
:1008F000BB60FA6813465B0013449B001A46044B26
:100900001344BA681A601437BD465DF8047B70471B
:100910004846005080B400AF054A054B5B6923F49C
:10092000803323F002035361BD465DF8047B7047BA
:100930001047005080B483B000AF78603960284A17
:10094000274B5B6943F00103536100BF244B1B69D4
:1009500003F00103002BF9D0214A214B5B6943F0DE
:10096000100353611E493B68013B1A027B68013B3F
:100970001B0613434B611A4A194B5B6943F0400352
:100980005361174A164B5B6923F010035361144AF5
:10099000134B5B6943F48023536100BF104B1B6909
:1009A00003F00403002BF9D00D4A0D4B5B6923F0D3
:1009B0000103536100BF0A4B1B6903F00103002BC5
:1009C000F9D1074A064B5B6923F040035361054B9D
:1009D0000822DA600C37BD465DF8047B704700BF23
:1009E000104700506041005080B582B000AF034610
:1009F000FB710F4A0E4B5B6843F480135360FB7925
:100A0000012B0ED10A4A0A4B5B6823F48013536012
:100A10006420FFF76FFD064A054B5B6843F4002333
:100A200053606420FFF766FD0837BD4680BD00BFF8
:100A30001047005080B400AF124B1B6803F0010355
:100A4000002B09D10F4B01225A6000BF0D4B1B68D0
:100A500003F00103002BF9D00B4B1B6803F4007368
:100A6000002B0AD0084B4FF400729A6000BF064B6F
:100A70001B6803F40073002BF9D1BD465DF8047BBD
:100A8000704700BF004200500044005080B400AFE7
:100A9000064B1B6803F00803002B0CBF0123002347
:100AA000DBB21846BD465DF8047B7047004300503A
:100AB00080B500AF4FF40000FFF74AFD174A174B0F
:100AC000DB6923F03003D36100BFFFF735FD034638
:100AD00003F40003002BF8D04FF40030FFF738FD8B
:100AE0000E4B08225A6000BFFFF726FD034603F4B1
:100AF0000033002BF8D04FF40020FFF729FD074A00
:100B0000064BDB6843F00803D36000BFFFF714FD1A
:100B1000034603F40023002BF8D080BD00430050AF
:100B2000B0B500AF0F4A0F4B5B6823F480335360BE
:100B30000D4D0D4B5B6823F4702424F0300400F05D
:100B400037FE0246094BA3FB02231B0D013B1B048E
:100B500023436B60034A034B5B6823F40033536009
:100B6000B0BD00BF10470050004700506BCA5F6B1C
:100B700080B400AF074B1B6803F46073B3F5607F6C
:100B80000CBF01230023DBB21846BD465DF8047B91
:100B9000704700BF1047005080B400AF054A054BB6
:100BA0005B6823F4803323F002035360BD465DF895
:100BB000047B70471047005080B400AF054A054BD6
:100BC0005B6843F4803343F002035360BD465DF835
:100BD000047B70471047005080B586B000AFBA6004
:100BE0007B600346FB810B467B73FB891846FFF74E
:100BF00091FD7B7B012B40F08B80FB89002B09D181
:100C000000F0D6FD0246544BA3FB02239B0C9B0530
:100C10007B6102E04FF0C0637B617B697A6802FB15
:100C200003F2BB68B2FBF3F37B617B694B4AA2FB27
:100C300003231B099B0D3B61494A494B5B6843F009
:100C40000103536000BF464B1B6803F00103002BF8
:100C5000F9D0434A424B5B6843F01003536040496C
:100C60003F4B9A683F4B13407A68013A12021A438D
:100C70003B69013B1B041A43BB68013B1B06134342
:100C80008B60374A364B5B6843F040035360344A0D
:100C9000334B5B6823F010035360314A304B5B6881
:100CA00043F48023536000BF2D4B1B6803F0040303
:100CB000002BF9D02A4A2A4B5B6823F001035360CA
:100CC00000BF274B1B6803F00103002BF9D17B69A0
:100CD000254AA2FB03235B099B0D3B613A6A3B69F2
:100CE0009A4202D2386900F045F87B695B081F4AD6
:100CF000A2FB03235B099B0D3B613A6A3B699A4265
:100D000002D2386900F036F8386A00F033F81CE097
:100D10001349134B9B6823F07F023B6A013B13434B
:100D20008B6000BF0E4B1B6803F01003002BF9D043
:100D30000B4A0B4B5B6843F00103536000BF084B49
:100D40001B6803F00103002BF9D0094B0522DA6080
:100D50001837BD4680BD00BF83DE1B43ABAAAAAADD
:100D600010470050FF8080F089888888B7600BB6F4
:100D70006041005080B582B000AF78600B490B4BEA
:100D80009B6823F4FE027B68013B1B0413438B60CA
:100D900000BF064B1B6803F02003002BF9D0322064
:100DA000FFF7A8FB0837BD4680BD00BF10470050C5
:100DB00080B483B000AF78607B684FF48072DA60F3
:100DC0000C37BD465DF8047B704700BF80B582B02C
:100DD00000AF78607B68084A934203D10420FFF794
:100DE00041FC06E07B68054A934202D10820FFF7E8
:100DF00039FC0837BD4680BD00C0004000000140FE
:100E000080B582B000AF78607B68084A934203D116
:100E10000420FFF763FD06E07B68054A934202D198
:100E20000820FFF75BFD0837BD4680BD00C00040CD
:100E30000000014080B582B000AF78601020FFF75D
:100E40003DFD7868FFF7DCFF7868FFF7BFFF0837E4
:100E5000BD4680BD80B584B000AF78600B46FB70A6
:100E60007868FFF7E7FF7868FFF7A2FF7B681B68E9
:100E7000FB60FB6823F44043FB60FB789B03FA684C
:100E80001343FB607B68FA681A601037BD4680BD6B
:100E900080B483B000AF786039603B681A687B68C3
:100EA0005A613B685B79C3F34013DBB21A057B6878
:100EB0005A603B681B79C3F30303DBB21A467B68B5
:100EC0005A623B685B79C3F30303DBB21A467B6863
:100ED0001A623B685B79C3F30013DBB21A467B6886
:100EE0009A613B681B79C3F30313DBB21A467B6834
:100EF000DA620C37BD465DF8047B704780B485B07C
:100F000000AF78600B46FB707B689B6AFB60FB68F8
:100F100023F47063FB60FB781B02FA681343FB60E9
:100F20007B68FA689A62FA787B685A621437BD4621
:100F30005DF8047B704700BF80B487B000AF786075
:100F40000B46FB701346BB70FB780B2B36D801A207
:100F500052F823F0850F0008850F00088F0F000856
:100F60008F0F0008BD0F0008BD0F0008BD0F00085F
:100F7000BD0F0008990F0008A50F0008B10F000869
:100F8000B10F000803233B6100237B611BE00C23AE
:100F90003B6102237B6116E04FF440733B61082301
:100FA0007B6110E04FF440633B610A237B610AE000
:100FB0004FF440533B610C237B6104E000233B6111
:100FC00000237B6100BF3B69002B13D07B68D3F803
:100FD000A830FB603B69DB43FA681340FB60BA78DA
:100FE0007B6902FA03F3FA681343FB607B68FA68D3
:100FF000C3F8A8201C37BD465DF8047B704700BFCE
:1010000080B483B000AF78600B46FB701346BB70B2
:101010007B685A6FFB785B00194603238B40DB43E8
:101020001A407B685A677B685A6FBB78F978490029
:101030008B401A437B685A670C37BD465DF8047BCA
:10104000704700BF80B400AFBD465DF8047B7047B9
:1010500080B483B000AF78600B46FB70FB78012250
:101060009A407B68DA600C37BD465DF8047B7047B8
:1010700080B483B000AF78607B689B6803F00103A5
:10108000002B14BF01230023DBB218460C37BD46EA
:101090005DF8047B704700BF80B483B000AF786018
:1010A0007B680122DA600C37BD465DF8047B70472F
:1010B00080B483B000AF78607B6801221A610C377E
:1010C000BD465DF8047B704780B483B000AF7860A4
:1010D0007B6802221A610C37BD465DF8047B7047BD
:1010E00080B483B000AF78600B467B807A887B68E1
:1010F0005A630C37BD465DF8047B704780B483B0FB
:1011000000AF78600B467B807A887B68DA630C37A7
:10111000BD465DF8047B704780B483B000AF786053
:1011200039607B683A681A610C37BD465DF8047B0C
:10113000704700BF80B483B000AF78600B46FB708F
:101140007B68D3F8A420FB78012101FA03F31A434A
:101150007B68C3F8A4200C37BD465DF8047B70475C
:1011600080B483B000AF78600B46FB70FB7801223F
:101170009A407B68C3F8B0200C37BD465DF8047B0D
:10118000704700BF80B584B000AF78600023FB7368
:101190007B6893F8263083F00103DBB2002B09D083
:1011A0007B6893F82130002B04D1786800F00AF9AD
:1011B0000346FB73FB7B18461037BD4680BD00BF5E
:1011C00080B584B000AF78607B6893F82630002B40
:1011D0000CD07B6893F82130002B04D17B685B69CD
:1011E0001846FFF759FF0023FB7301E00123FB734F
:1011F000FB7B18461037BD4680BD00BF80B584B06C
:1012000000AF7860786800F01DF80346002B11D01D
:101210007B6893F82630002B0CD07B6893F8213044
:10122000002B04D17B685B691846FFF741FF002360
:10123000FB7301E00123FB73FB7B18461037BD46AF
:1012400080BD00BF80B584B000AF78600023FB7321
:101250007B6893F82130002B06D17B685B691846C8
:10126000FFF706FF0346FB73FB7B18461037BD46AE
:1012700080BD00BF00000000F0B587B000AF78600F
:1012800039600123FB757868FFF7DCFF034683F0C4
:101290000103DBB2002B79D07B689A683B689A42E5
:1012A00074D87B685A683B689A426FD300233B61CD
:1012B00002E03B6901333B617B685B683A69C2F1DC
:1012C0000F0223FA02F23B689A42F2D37B6893F84A
:1012D0002130002B5AD17B681B691B68FB607B683F
:1012E000DA693B69DBB203F00F03D9B2137961F31A
:1012F000030313713B6818464FF00001FB681A4660
:101300004FF0000302FB01FE00FB03F67644A0FB56
:101310000223F1180B467968C9690979C1F3030101
:10132000C9B2C1F12006A1F1200022FA01F403FAAA
:1013300006F6344323FA00F0044323FA01F520466D
:10134000294615A3D3E9002300F032FB02460B46E1
:1013500092B27B685A847B685B8C012B05D97B68D1
:101360005B8C013B9AB27B685A847B685A697B68C4
:10137000DB691B79C3F30303DBB210461946FFF7A1
:10138000BDFD786800F06AF80023FB75FB7D184608
:101390001C37BD46F0BD00BF00E1F50500000000B0
:1013A00080B582B000AF78607B6893F82130002B65
:1013B00005D17B685B6918460021FFF7D1FE08372D
:1013C000BD4680BD80B584B000AF78607B681B6986
:1013D000184600F029F90346FB737B681B699A687D
:1013E0007B681B7E10461946FFF732FE7B685A6900
:1013F0007B68DB6910461946FFF74AFD786800F004
:101400002DF87B6893F82530002B0FD07B685A6944
:101410007B6893F82030104600211A46FFF78CFDB8
:101420007B685B6918460021FFF784FE7B685B6977
:101430001846FFF749FE7B68012283F826207B6867
:1014400093F82430002B04D07B685B691846FFF7C3
:1014500023FEFB7B18461037BD4680BD80B582B0A9
:1014600000AF78607B685A697B685B8C10461946D0
:10147000FFF736FE7B685B6918460021FFF73EFEEA
:101480007B681B699A687B68DB6810461946FFF722
:1014900043FE0837BD4680BD80B400AF044BDB6817
:1014A00003F4E0631B0A1846BD465DF8047B7047F1
:1014B00000ED00E080B483B000AF0346FB7197F904
:1014C0000730002B0BDB084997F907305B09FA79E5
:1014D00002F01F02012000FA02F241F823200C372B
:1014E000BD465DF8047B704700E100E080B483B046
:1014F00000AF03463960FB7197F90730002B0ADB18
:101500000D4997F907303A68D2B29200D2B20B4433
:1015100083F800230AE00949FB7903F00F03043B39
:101520003A68D2B29200D2B20B441A760C37BD465A
:101530005DF8047B704700BF00E100E000ED00E0D3
:1015400080B489B000AFF860B9607A60FB6803F0DE
:101550000703FB61FB69C3F10703062B28BF0623C2
:10156000BB61FB690633062B02D9FB69013B00E036
:1015700000237B61BB69012202FA03F35A1EBB6898
:101580001A407B699A407B69012101FA03F3591ED5
:101590007B680B40134318462437BD465DF8047B37
:1015A000704700BF80B582B000AF78607B681B7861
:1015B0005BB21846FFF77EFF0837BD4680BD00BF0F
:1015C00090B583B000AF78607B681C78FFF764FF4C
:1015D00001467B685B781A467B689B780846114613
:1015E0001A46FFF7ADFF024663B218461146FFF7F1
:1015F0007DFF7B68DB78002B02D07868FFF7D2FF95
:10160000002318460C37BD4690BD00BF80B483B0A0
:1016100000AF78607B684FF48072DA600C37BD46AB
:101620005DF8047B704700BF80B582B000AF786082
:101630007B685B7B83F00103DBB2002B0FD07B6800
:101640009A687B681B7B10461946FFF703FC7B6892
:101650009B681846FFF7DAFF7B6801225A73002364
:1016600018460837BD4680BD80B582B000AF7860AF
:101670007B6819687B681A7C7B68043308461146CE
:101680001A46FEF78BFE7B6819687B681A7C7B68BC
:101690005B7C084611461A46FFF7B2FC0023184649
:1016A0000837BD4680BD00BF80B485B000AF78600C
:1016B0007B6803F00703FB600C4BDB68BB60BA6818
:1016C0004FF6FF031340BB60FB681A02BB6813436D
:1016D00043F0BF6343F40033BB60044ABB68D3608C
:1016E0001437BD465DF8047B704700BF00ED00E095
:1016F00080B582B000AF0120FFF7D6FF72B6214B54
:10170000214A9A60BFF34F8F62B61E4A1D4BD3F831
:10171000883043F47003C2F888301C4B03F58053C3
:1017200014331B687B607B6823F00F037B607B684E
:1017300043F002037B60154B03F5805314337A6842
:101740001A60104A0F4B5B6923F0100353610D4A76
:101750000C4B5B6923F0080353610A4A094B5B6A2F
:1017600023F480335362074A064B5B6A23F4003349
:101770005362044A034B5B6A23F4802353620837A5
:10178000BD4680BD00ED00E00000000800100058DC
:1017900080B485B000AF78600023FB737B680122C2
:1017A0001A70FB7B18461437BD465DF8047B704702
:1017B00080B400AF024B1846BD465DF8047B70470D
:1017C000001BB700B0B586B000AF114B3C1D1D46E5
:1017D0000FCD0FC42B6823603B1D1846FEF7C6FED5
:1017E0000020FEF7B7FF0020FEF76CFF0420FFF794
:1017F0003DF8FFF78FF801202021FFF79BF800202C
:10180000FEF774FF0120FFF745F81837BD46B0BD5D
:10181000C01F000880B582B000AF0023FB711548DF
:10182000FFF7B6FF0346FB71FB79002B04D112488A
:10183000FFF71AFF0346FB71FB79002B04D10F4819
:10184000FFF712FF0346FB71FB79002B04D10C4814
:10185000FFF798FC0346FB71FB79002B04D1094884
:10186000FFF7AEFE0346FB71FB7918460837BD460D
:1018700080BD00BF40C8FF1F981F0008AC1F0008B4
:1018800000C8FF1F941F000880B483B000AF7860C9
:101890000B46FB70FB784FF001129A407B685A6050
:1018A0000C37BD465DF8047B704700BF80B483B041
:1018B00000AF78600B46FB707B685A6AFB7822FAAF
:1018C00003F303F0010318460C37BD465DF8047BB3
:1018D000704700BF80B582B000AF78607B681A683F
:1018E0007B681B7C10461946FFF7CEFF0837BD46C4
:1018F00080BD00BF80B582B000AF78607B681A6899
:101900007B681B7C10461946FFF7D0FF034618463C
:101910000837BD4680BD00BF80B582B000AFFFF77D
:1019200079FF0346FB71FB79002B00D0FEE70948E5
:10193000FFF7E0FF38603B68002B09D10648FFF74E
:101940005DFC05480549FFF797FC0348FFF738FCA5
:10195000EDE700BFAC1F000800C8FF1FA086010014
:1019600080B500AF0F48FFF71BFD0E48FFF746FCA0
:101970000C4842F21071FFF77FFC0B4B1B68C82B21
:1019800006D10A48FFF7A6FF074B00221A6004E0C1
:10199000054B1B680133044A13600248FFF710FC33
:1019A00080BD00BF00C8FF1F44C8FF1F981F00086C
:1019B0004BB942B9002908BF002802D04FF0FF31CF
:1019C000084600F03BB882B0EC462DE9005000F02C
:1019D0001DF8DDF804E002B00CBC70472DE9F041C1
:1019E000069C154606460F46984600F029F805FB6A
:1019F00001F300FB0838A5FB0023B21A434467EB50
:101A00000303C4E90023BDE8F08100BF2DE9F041E4
:101A1000069C904606460F461D4600F05FF900FB07
:101A200005F5A0FB082308FB0155B21A2B4467EB10
:101A30000303C4E90023BDE8F08100BF704700BF85
:101A400000292DE9F043C0F2A6800026002BC0F249
:101A50009C80884694469E46154604460F46002BB9
:101A60003DD18A4259D9B2FA82F33BB1C3F1200287
:101A70009F4020FA02F29D4017439C40290C220C03
:101A8000B7FBF1FEA8B201FB1E7742EA074700FB55
:101A90000EF3BB420AD97F190EF1FF3280F00581A7
:101AA000BB4240F20281AEF1020E2F44FF1AA4B2F3
:101AB000B7FBF1F301FB137744EA074700FB03F0A0
:101AC000B84208D97F1903F1FF3280F0F080B842A4
:101AD00040F2ED80023B43EA0E43002203E08B42DA
:101AE0000FD900221346341C18BF012460424FF066
:101AF000000565EB45015840514000196941BDE8BA
:101B0000F083B3FA83F2002A40F086808B4202D33E
:101B1000844500F2DB800123E5E712B90123B3FB22
:101B2000F2F5B5FA85F000283BD1781B4FEA154E47
:101B30001FFA85FC0122B0FBFEF8210C0EFB1807F2
:101B400041EA07470CFB08F3BB4207D97F1908F1AC
:101B5000FF3102D2BB4200F2BD808846FF1AA4B218
:101B6000B7FBFEF30EFB137744EA07470CFB03FCBD
:101B7000BC4507D97F1903F1FF3102D2BC4500F201
:101B8000A7800B4643EA0843ADE752426FEA0606D8
:101B900063EB43035DE7404261EB41014FF0FF36E9
:101BA00054E7C0F1200224FA02F107FA00F385405D
:101BB0004FEA154ED7401943B7FBFEF20B0C0EFB54
:101BC00012771FFA85FC43EA07430CFB02F79F429A
:101BD00004FA00F407D95B1902F1FF3074D29F4276
:101BE00072D9023A2B44DF1B89B2B7FBFEF80EFB19
:101BF000187341EA03430CFB08F79F4208D95B19AD
:101C000008F1FF315CD29F425AD9A8F102082B4457
:101C1000D81B48EA02428EE7C2F120032CFA03F1F6
:101C20000EFA02FE20FA03F741EA0E0E08FA02F05D
:101C300028FA03F14FEA1E453843B1FBF5F8030CCF
:101C400005FB18111FFA8EF743EA014107FB08F361
:101C50008B420CFA02FC09D911EB0E0108F1FF3995
:101C600030D28B422ED9A8F102087144C91A80B231
:101C7000B1FBF5F305FB131140EA014107FB03F744
:101C80008F4208D911EB0E0103F1FF3016D28F42BB
:101C900014D9023B714443EA0843C91BA3FB0C89D6
:101CA000494509D305D000221DE79646FEE61346B6
:101CB00011E794404445F6D2013BF4E70346EAE7D6
:101CC0008846A5E7C846D1E702468CE713460AE7EF
:101CD000023B57E7A8F102082F443FE72DE9F04106
:101CE000002B44D18A42154604464FD9B2FA82F7F6
:101CF0000E464FB1C7F12003B94020FA03F602FAAD
:101D000007F50E4300FA07F44FEA154E230CB6FB15
:101D1000FEF0AFB20EFB106143EA014307FB00F196
:101D2000994209D95B1900F1FF3280F0EC809942A9
:101D300040F2E98002382B445A1AA4B2B2FBFEF3F7
:101D40000EFB132244EA024207FB03F7974208D92D
:101D5000521903F1FF3180F0D880974240F2D580CC
:101D6000023B43EA004000263146BDE8F0818B4249
:101D700047D8B3FA83F6002E48D18B4202D3824271
:101D800000F2CD8001203146BDE8F08112B9012575
:101D9000B5FBF2F5B5FA85F8B8F1000F77D14A1B1B
:101DA0004FEA154EAFB20126B2FBFEF0230C0EFB3C
:101DB000102143EA014107FB00F38B4207D949197F
:101DC00000F1FF3202D28B4200F2BA801046C91AEB
:101DD000A4B2B1FBFEF30EFB131144EA014407FB6E
:101DE00003F7A74208D9641903F1FF3280F08F800E
:101DF000A74240F28C80023B43EA00403146BDE8F6
:101E0000F081002630463146BDE8F081C6F120045D
:101E100022FA04F5B3402B4320FA04FC01FA06F73A
:101E200021FA04F54FEA134E4CEA0707B5FBFEF81A
:101E3000390C0EFB18551FFA83FC41EA05450CFBD3
:101E400008F1A94202FA06F204D9ED1808F1FF34AC
:101E500067D3A0466D1ABFB2B5FBFEF40EFB145556
:101E600047EA05410CFB04FC8C4504D9C91804F170
:101E7000FF355CD32C4644EA0844CCEB0101A4FBBB
:101E80000223994248D344D0204600266CE7C8F18B
:101E9000200401FA08F305FA08F520FA04F7E140F6
:101EA0004FEA154E1F43B1FBFEF63A0C0EFB16111E
:101EB0001FFA85FC42EA01430CFB06F29A4200FA43
:101EC00008F407D95B1906F1FF3137D29A4235D9A8
:101ED000023E2B449B1ABFB2B3FBFEF00EFB103345
:101EE00047EA03430CFB00F1994207D95B1900F163
:101EF000FF3221D299421FD902382B445A1A40EAA4
:101F00000646674650E7104616E70B4629E7134694
:101F100072E7B0409042B7D2601E002624E73046F8
:101F200022E7A94295D9A8F102081D4492E78C4501
:101F3000A0D9023C19449EE71046DFE70E46C9E7E8
:101F40000238294443E700BF70B50E4B0E4CE41A2B
:101F5000A41000251E46A54204D056F82530984707
:101F60000135F8E7FFF76EF8084C094BE41AA410A6
:101F700000251E46A54204D056F825309847013565
:101F8000F8E770BD38C8FF1F38C8FF1F38C8FF1FEB
:101F900038C8FF1F313F0001008002488000000068
:101FA0000000010000000000010000000081024864
:101FB0000000000000000000000000000F00000012
:101FC00050030401000001000000000000000100B7
:041FD0000101010109
:081FD4006CFAFF7F0100000020
:101FDC00640000000060FF9F0A0000000050000039
:101FEC0028C8FF1F000401400300000038C8FF1F71
:101FFC0001004F000101000000B4C4040200000005
:08200C0000000140000000008B
:0400000508000201EC
:00000001FF
